{
  "_format": "hh-sol-artifact-1",
  "contractName": "TestL2Token",
  "sourceName": "contracts/TestL2Token.sol",
  "abi": [
    {
      "inputs": [
        {
          "internalType": "address",
          "name": "_bridge",
          "type": "address"
        },
        {
          "internalType": "address",
          "name": "_remoteToken",
          "type": "address"
        },
        {
          "internalType": "string",
          "name": "_name",
          "type": "string"
        },
        {
          "internalType": "string",
          "name": "_symbol",
          "type": "string"
        }
      ],
      "stateMutability": "nonpayable",
      "type": "constructor"
    },
    {
      "inputs": [
        {
          "internalType": "address",
          "name": "spender",
          "type": "address"
        },
        {
          "internalType": "uint256",
          "name": "allowance",
          "type": "uint256"
        },
        {
          "internalType": "uint256",
          "name": "needed",
          "type": "uint256"
        }
      ],
      "name": "ERC20InsufficientAllowance",
      "type": "error"
    },
    {
      "inputs": [
        {
          "internalType": "address",
          "name": "sender",
          "type": "address"
        },
        {
          "internalType": "uint256",
          "name": "balance",
          "type": "uint256"
        },
        {
          "internalType": "uint256",
          "name": "needed",
          "type": "uint256"
        }
      ],
      "name": "ERC20InsufficientBalance",
      "type": "error"
    },
    {
      "inputs": [
        {
          "internalType": "address",
          "name": "approver",
          "type": "address"
        }
      ],
      "name": "ERC20InvalidApprover",
      "type": "error"
    },
    {
      "inputs": [
        {
          "internalType": "address",
          "name": "receiver",
          "type": "address"
        }
      ],
      "name": "ERC20InvalidReceiver",
      "type": "error"
    },
    {
      "inputs": [
        {
          "internalType": "address",
          "name": "sender",
          "type": "address"
        }
      ],
      "name": "ERC20InvalidSender",
      "type": "error"
    },
    {
      "inputs": [
        {
          "internalType": "address",
          "name": "spender",
          "type": "address"
        }
      ],
      "name": "ERC20InvalidSpender",
      "type": "error"
    },
    {
      "anonymous": false,
      "inputs": [
        {
          "indexed": true,
          "internalType": "address",
          "name": "owner",
          "type": "address"
        },
        {
          "indexed": true,
          "internalType": "address",
          "name": "spender",
          "type": "address"
        },
        {
          "indexed": false,
          "internalType": "uint256",
          "name": "value",
          "type": "uint256"
        }
      ],
      "name": "Approval",
      "type": "event"
    },
    {
      "anonymous": false,
      "inputs": [
        {
          "indexed": true,
          "internalType": "address",
          "name": "account",
          "type": "address"
        },
        {
          "indexed": false,
          "internalType": "uint256",
          "name": "amount",
          "type": "uint256"
        }
      ],
      "name": "Burn",
      "type": "event"
    },
    {
      "anonymous": false,
      "inputs": [
        {
          "indexed": true,
          "internalType": "address",
          "name": "account",
          "type": "address"
        },
        {
          "indexed": false,
          "internalType": "uint256",
          "name": "amount",
          "type": "uint256"
        }
      ],
      "name": "Mint",
      "type": "event"
    },
    {
      "anonymous": false,
      "inputs": [
        {
          "indexed": true,
          "internalType": "address",
          "name": "from",
          "type": "address"
        },
        {
          "indexed": true,
          "internalType": "address",
          "name": "to",
          "type": "address"
        },
        {
          "indexed": false,
          "internalType": "uint256",
          "name": "value",
          "type": "uint256"
        }
      ],
      "name": "Transfer",
      "type": "event"
    },
    {
      "inputs": [],
      "name": "BRIDGE",
      "outputs": [
        {
          "internalType": "address",
          "name": "",
          "type": "address"
        }
      ],
      "stateMutability": "view",
      "type": "function"
    },
    {
      "inputs": [],
      "name": "REMOTE_TOKEN",
      "outputs": [
        {
          "internalType": "address",
          "name": "",
          "type": "address"
        }
      ],
      "stateMutability": "view",
      "type": "function"
    },
    {
      "inputs": [
        {
          "internalType": "address",
          "name": "owner",
          "type": "address"
        },
        {
          "internalType": "address",
          "name": "spender",
          "type": "address"
        }
      ],
      "name": "allowance",
      "outputs": [
        {
          "internalType": "uint256",
          "name": "",
          "type": "uint256"
        }
      ],
      "stateMutability": "view",
      "type": "function"
    },
    {
      "inputs": [
        {
          "internalType": "address",
          "name": "spender",
          "type": "address"
        },
        {
          "internalType": "uint256",
          "name": "value",
          "type": "uint256"
        }
      ],
      "name": "approve",
      "outputs": [
        {
          "internalType": "bool",
          "name": "",
          "type": "bool"
        }
      ],
      "stateMutability": "nonpayable",
      "type": "function"
    },
    {
      "inputs": [
        {
          "internalType": "address",
          "name": "account",
          "type": "address"
        }
      ],
      "name": "balanceOf",
      "outputs": [
        {
          "internalType": "uint256",
          "name": "",
          "type": "uint256"
        }
      ],
      "stateMutability": "view",
      "type": "function"
    },
    {
      "inputs": [],
      "name": "bridge",
      "outputs": [
        {
          "internalType": "address",
          "name": "",
          "type": "address"
        }
      ],
      "stateMutability": "view",
      "type": "function"
    },
    {
      "inputs": [
        {
          "internalType": "address",
          "name": "",
          "type": "address"
        },
        {
          "internalType": "uint256",
          "name": "",
          "type": "uint256"
        }
      ],
      "name": "burn",
      "outputs": [],
      "stateMutability": "nonpayable",
      "type": "function"
    },
    {
      "inputs": [],
      "name": "decimals",
      "outputs": [
        {
          "internalType": "uint8",
          "name": "",
          "type": "uint8"
        }
      ],
      "stateMutability": "view",
      "type": "function"
    },
    {
      "inputs": [
        {
          "internalType": "address",
          "name": "_to",
          "type": "address"
        },
        {
          "internalType": "uint256",
          "name": "_amount",
          "type": "uint256"
        }
      ],
      "name": "mint",
      "outputs": [],
      "stateMutability": "nonpayable",
      "type": "function"
    },
    {
      "inputs": [],
      "name": "name",
      "outputs": [
        {
          "internalType": "string",
          "name": "",
          "type": "string"
        }
      ],
      "stateMutability": "view",
      "type": "function"
    },
    {
      "inputs": [],
      "name": "remoteToken",
      "outputs": [
        {
          "internalType": "address",
          "name": "",
          "type": "address"
        }
      ],
      "stateMutability": "view",
      "type": "function"
    },
    {
      "inputs": [
        {
          "internalType": "bytes4",
          "name": "_interfaceId",
          "type": "bytes4"
        }
      ],
      "name": "supportsInterface",
      "outputs": [
        {
          "internalType": "bool",
          "name": "",
          "type": "bool"
        }
      ],
      "stateMutability": "pure",
      "type": "function"
    },
    {
      "inputs": [],
      "name": "symbol",
      "outputs": [
        {
          "internalType": "string",
          "name": "",
          "type": "string"
        }
      ],
      "stateMutability": "view",
      "type": "function"
    },
    {
      "inputs": [],
      "name": "totalSupply",
      "outputs": [
        {
          "internalType": "uint256",
          "name": "",
          "type": "uint256"
        }
      ],
      "stateMutability": "view",
      "type": "function"
    },
    {
      "inputs": [
        {
          "internalType": "address",
          "name": "to",
          "type": "address"
        },
        {
          "internalType": "uint256",
          "name": "value",
          "type": "uint256"
        }
      ],
      "name": "transfer",
      "outputs": [
        {
          "internalType": "bool",
          "name": "",
          "type": "bool"
        }
      ],
      "stateMutability": "nonpayable",
      "type": "function"
    },
    {
      "inputs": [
        {
          "internalType": "address",
          "name": "from",
          "type": "address"
        },
        {
          "internalType": "address",
          "name": "to",
          "type": "address"
        },
        {
          "internalType": "uint256",
          "name": "value",
          "type": "uint256"
        }
      ],
      "name": "transferFrom",
      "outputs": [
        {
          "internalType": "bool",
          "name": "",
          "type": "bool"
        }
      ],
      "stateMutability": "nonpayable",
      "type": "function"
    }
  ],
  "bytecode": "0x60c06040523480156200001157600080fd5b5060405162001bbc38038062001bbc8339818101604052810190620000379190620002c9565b818181600390816200004a9190620005c4565b5080600490816200005c9190620005c4565b5050508273ffffffffffffffffffffffffffffffffffffffff1660808173ffffffffffffffffffffffffffffffffffffffff16815250508373ffffffffffffffffffffffffffffffffffffffff1660a08173ffffffffffffffffffffffffffffffffffffffff168152505050505050620006ab565b6000604051905090565b600080fd5b600080fd5b600073ffffffffffffffffffffffffffffffffffffffff82169050919050565b60006200011282620000e5565b9050919050565b620001248162000105565b81146200013057600080fd5b50565b600081519050620001448162000119565b92915050565b600080fd5b600080fd5b6000601f19601f8301169050919050565b7f4e487b7100000000000000000000000000000000000000000000000000000000600052604160045260246000fd5b6200019f8262000154565b810181811067ffffffffffffffff82111715620001c157620001c062000165565b5b80604052505050565b6000620001d6620000d1565b9050620001e4828262000194565b919050565b600067ffffffffffffffff82111562000207576200020662000165565b5b620002128262000154565b9050602081019050919050565b60005b838110156200023f57808201518184015260208101905062000222565b60008484015250505050565b6000620002626200025c84620001e9565b620001ca565b9050828152602081018484840111156200028157620002806200014f565b5b6200028e8482856200021f565b509392505050565b600082601f830112620002ae57620002ad6200014a565b5b8151620002c08482602086016200024b565b91505092915050565b60008060008060808587031215620002e657620002e5620000db565b5b6000620002f68782880162000133565b9450506020620003098782880162000133565b935050604085015167ffffffffffffffff8111156200032d576200032c620000e0565b5b6200033b8782880162000296565b925050606085015167ffffffffffffffff8111156200035f576200035e620000e0565b5b6200036d8782880162000296565b91505092959194509250565b600081519050919050565b7f4e487b7100000000000000000000000000000000000000000000000000000000600052602260045260246000fd5b60006002820490506001821680620003cc57607f821691505b602082108103620003e257620003e162000384565b5b50919050565b60008190508160005260206000209050919050565b60006020601f8301049050919050565b600082821b905092915050565b6000600883026200044c7fffffffffffffffffffffffffffffffffffffffffffffffffffffffffffffffff826200040d565b6200045886836200040d565b95508019841693508086168417925050509392505050565b6000819050919050565b6000819050919050565b6000620004a56200049f620004998462000470565b6200047a565b62000470565b9050919050565b6000819050919050565b620004c18362000484565b620004d9620004d082620004ac565b8484546200041a565b825550505050565b600090565b620004f0620004e1565b620004fd818484620004b6565b505050565b5b81811015620005255762000519600082620004e6565b60018101905062000503565b5050565b601f82111562000574576200053e81620003e8565b6200054984620003fd565b8101602085101562000559578190505b620005716200056885620003fd565b83018262000502565b50505b505050565b600082821c905092915050565b6000620005996000198460080262000579565b1980831691505092915050565b6000620005b4838362000586565b9150826002028217905092915050565b620005cf8262000379565b67ffffffffffffffff811115620005eb57620005ea62000165565b5b620005f78254620003b3565b6200060482828562000529565b600060209050601f8311600181146200063c576000841562000627578287015190505b620006338582620005a6565b865550620006a3565b601f1984166200064c86620003e8565b60005b8281101562000676578489015182556001820191506020850194506020810190506200064f565b8683101562000696578489015162000692601f89168262000586565b8355505b6001600288020188555050505b505050505050565b60805160a0516114cf620006ed600039600081816105470152818161070b015281816108a801526108ce01526000818161042c01526107f901526114cf6000f3fe608060405234801561001057600080fd5b50600436106101005760003560e01c806370a0823111610097578063d6c0b2c411610066578063d6c0b2c4146102c3578063dd62ed3e146102e1578063e78cea9214610311578063ee9a31a21461032f57610100565b806370a082311461022957806395d89b41146102595780639dc29fac14610277578063a9059cbb1461029357610100565b806318160ddd116100d357806318160ddd146101a157806323b872dd146101bf578063313ce567146101ef57806340c10f191461020d57610100565b806301ffc9a714610105578063033964be1461013557806306fdde0314610153578063095ea7b314610171575b600080fd5b61011f600480360381019061011a9190610f6d565b61034d565b60405161012c9190610fb5565b60405180910390f35b61013d61042a565b60405161014a9190611011565b60405180910390f35b61015b61044e565b60405161016891906110bc565b60405180910390f35b61018b60048036038101906101869190611140565b6104e0565b6040516101989190610fb5565b60405180910390f35b6101a9610503565b6040516101b6919061118f565b60405180910390f35b6101d960048036038101906101d491906111aa565b61050d565b6040516101e69190610fb5565b60405180910390f35b6101f761053c565b6040516102049190611219565b60405180910390f35b61022760048036038101906102229190611140565b610545565b005b610243600480360381019061023e9190611234565b61062f565b604051610250919061118f565b60405180910390f35b610261610677565b60405161026e91906110bc565b60405180910390f35b610291600480360381019061028c9190611140565b610709565b005b6102ad60048036038101906102a89190611140565b6107d2565b6040516102ba9190610fb5565b60405180910390f35b6102cb6107f5565b6040516102d89190611011565b60405180910390f35b6102fb60048036038101906102f69190611261565b61081d565b604051610308919061118f565b60405180910390f35b6103196108a4565b6040516103269190611011565b60405180910390f35b6103376108cc565b6040516103449190611011565b60405180910390f35b6000807f01ffc9a700000000000000000000000000000000000000000000000000000000905060007fec4fc8e3000000000000000000000000000000000000000000000000000000009050817bffffffffffffffffffffffffffffffffffffffffffffffffffffffff1916847bffffffffffffffffffffffffffffffffffffffffffffffffffffffff191614806104215750807bffffffffffffffffffffffffffffffffffffffffffffffffffffffff1916847bffffffffffffffffffffffffffffffffffffffffffffffffffffffff1916145b92505050919050565b7f000000000000000000000000000000000000000000000000000000000000000081565b60606003805461045d906112d0565b80601f0160208091040260200160405190810160405280929190818152602001828054610489906112d0565b80156104d65780601f106104ab576101008083540402835291602001916104d6565b820191906000526020600020905b8154815290600101906020018083116104b957829003601f168201915b5050505050905090565b6000806104eb6108f0565b90506104f88185856108f8565b600191505092915050565b6000600254905090565b6000806105186108f0565b905061052585828561090a565b61053085858561099e565b60019150509392505050565b60006012905090565b7f000000000000000000000000000000000000000000000000000000000000000073ffffffffffffffffffffffffffffffffffffffff163373ffffffffffffffffffffffffffffffffffffffff16146105d3576040517f08c379a00000000000000000000000000000000000000000000000000000000081526004016105ca90611373565b60405180910390fd5b6105dd8282610a92565b8173ffffffffffffffffffffffffffffffffffffffff167f0f6798a560793a54c3bcfe86a93cde1e73087d944c0ea20544137d412139688582604051610623919061118f565b60405180910390a25050565b60008060008373ffffffffffffffffffffffffffffffffffffffff1673ffffffffffffffffffffffffffffffffffffffff168152602001908152602001600020549050919050565b606060048054610686906112d0565b80601f01602080910402602001604051908101604052809291908181526020018280546106b2906112d0565b80156106ff5780601f106106d4576101008083540402835291602001916106ff565b820191906000526020600020905b8154815290600101906020018083116106e257829003601f168201915b5050505050905090565b7f000000000000000000000000000000000000000000000000000000000000000073ffffffffffffffffffffffffffffffffffffffff163373ffffffffffffffffffffffffffffffffffffffff1614610797576040517f08c379a000000000000000000000000000000000000000000000000000000000815260040161078e90611373565b60405180910390fd5b6040517f08c379a00000000000000000000000000000000000000000000000000000000081526004016107c9906113df565b60405180910390fd5b6000806107dd6108f0565b90506107ea81858561099e565b600191505092915050565b60007f0000000000000000000000000000000000000000000000000000000000000000905090565b6000600160008473ffffffffffffffffffffffffffffffffffffffff1673ffffffffffffffffffffffffffffffffffffffff16815260200190815260200160002060008373ffffffffffffffffffffffffffffffffffffffff1673ffffffffffffffffffffffffffffffffffffffff16815260200190815260200160002054905092915050565b60007f0000000000000000000000000000000000000000000000000000000000000000905090565b7f000000000000000000000000000000000000000000000000000000000000000081565b600033905090565b6109058383836001610b14565b505050565b6000610916848461081d565b90507fffffffffffffffffffffffffffffffffffffffffffffffffffffffffffffffff81146109985781811015610988578281836040517ffb8f41b200000000000000000000000000000000000000000000000000000000815260040161097f939291906113ff565b60405180910390fd5b61099784848484036000610b14565b5b50505050565b600073ffffffffffffffffffffffffffffffffffffffff168373ffffffffffffffffffffffffffffffffffffffff1603610a105760006040517f96c6fd1e000000000000000000000000000000000000000000000000000000008152600401610a079190611011565b60405180910390fd5b600073ffffffffffffffffffffffffffffffffffffffff168273ffffffffffffffffffffffffffffffffffffffff1603610a825760006040517fec442f05000000000000000000000000000000000000000000000000000000008152600401610a799190611011565b60405180910390fd5b610a8d838383610ceb565b505050565b600073ffffffffffffffffffffffffffffffffffffffff168273ffffffffffffffffffffffffffffffffffffffff1603610b045760006040517fec442f05000000000000000000000000000000000000000000000000000000008152600401610afb9190611011565b60405180910390fd5b610b1060008383610ceb565b5050565b600073ffffffffffffffffffffffffffffffffffffffff168473ffffffffffffffffffffffffffffffffffffffff1603610b865760006040517fe602df05000000000000000000000000000000000000000000000000000000008152600401610b7d9190611011565b60405180910390fd5b600073ffffffffffffffffffffffffffffffffffffffff168373ffffffffffffffffffffffffffffffffffffffff1603610bf85760006040517f94280d62000000000000000000000000000000000000000000000000000000008152600401610bef9190611011565b60405180910390fd5b81600160008673ffffffffffffffffffffffffffffffffffffffff1673ffffffffffffffffffffffffffffffffffffffff16815260200190815260200160002060008573ffffffffffffffffffffffffffffffffffffffff1673ffffffffffffffffffffffffffffffffffffffff168152602001908152602001600020819055508015610ce5578273ffffffffffffffffffffffffffffffffffffffff168473ffffffffffffffffffffffffffffffffffffffff167f8c5be1e5ebec7d5bd14f71427d1e84f3dd0314c0f7b2291e5b200ac8c7c3b92584604051610cdc919061118f565b60405180910390a35b50505050565b600073ffffffffffffffffffffffffffffffffffffffff168373ffffffffffffffffffffffffffffffffffffffff1603610d3d578060026000828254610d319190611465565b92505081905550610e10565b60008060008573ffffffffffffffffffffffffffffffffffffffff1673ffffffffffffffffffffffffffffffffffffffff16815260200190815260200160002054905081811015610dc9578381836040517fe450d38c000000000000000000000000000000000000000000000000000000008152600401610dc0939291906113ff565b60405180910390fd5b8181036000808673ffffffffffffffffffffffffffffffffffffffff1673ffffffffffffffffffffffffffffffffffffffff16815260200190815260200160002081905550505b600073ffffffffffffffffffffffffffffffffffffffff168273ffffffffffffffffffffffffffffffffffffffff1603610e595780600260008282540392505081905550610ea6565b806000808473ffffffffffffffffffffffffffffffffffffffff1673ffffffffffffffffffffffffffffffffffffffff168152602001908152602001600020600082825401925050819055505b8173ffffffffffffffffffffffffffffffffffffffff168373ffffffffffffffffffffffffffffffffffffffff167fddf252ad1be2c89b69c2b068fc378daa952ba7f163c4a11628f55a4df523b3ef83604051610f03919061118f565b60405180910390a3505050565b600080fd5b60007fffffffff0000000000000000000000000000000000000000000000000000000082169050919050565b610f4a81610f15565b8114610f5557600080fd5b50565b600081359050610f6781610f41565b92915050565b600060208284031215610f8357610f82610f10565b5b6000610f9184828501610f58565b91505092915050565b60008115159050919050565b610faf81610f9a565b82525050565b6000602082019050610fca6000830184610fa6565b92915050565b600073ffffffffffffffffffffffffffffffffffffffff82169050919050565b6000610ffb82610fd0565b9050919050565b61100b81610ff0565b82525050565b60006020820190506110266000830184611002565b92915050565b600081519050919050565b600082825260208201905092915050565b60005b8381101561106657808201518184015260208101905061104b565b60008484015250505050565b6000601f19601f8301169050919050565b600061108e8261102c565b6110988185611037565b93506110a8818560208601611048565b6110b181611072565b840191505092915050565b600060208201905081810360008301526110d68184611083565b905092915050565b6110e781610ff0565b81146110f257600080fd5b50565b600081359050611104816110de565b92915050565b6000819050919050565b61111d8161110a565b811461112857600080fd5b50565b60008135905061113a81611114565b92915050565b6000806040838503121561115757611156610f10565b5b6000611165858286016110f5565b92505060206111768582860161112b565b9150509250929050565b6111898161110a565b82525050565b60006020820190506111a46000830184611180565b92915050565b6000806000606084860312156111c3576111c2610f10565b5b60006111d1868287016110f5565b93505060206111e2868287016110f5565b92505060406111f38682870161112b565b9150509250925092565b600060ff82169050919050565b611213816111fd565b82525050565b600060208201905061122e600083018461120a565b92915050565b60006020828403121561124a57611249610f10565b5b6000611258848285016110f5565b91505092915050565b6000806040838503121561127857611277610f10565b5b6000611286858286016110f5565b9250506020611297858286016110f5565b9150509250929050565b7f4e487b7100000000000000000000000000000000000000000000000000000000600052602260045260246000fd5b600060028204905060018216806112e857607f821691505b6020821081036112fb576112fa6112a1565b5b50919050565b7f546573744c32546f6b656e3a206f6e6c79206272696467652063616e206d696e60008201527f7420616e64206275726e00000000000000000000000000000000000000000000602082015250565b600061135d602a83611037565b915061136882611301565b604082019050919050565b6000602082019050818103600083015261138c81611350565b9050919050565b7f546573744c32546f6b656e2063616e6e6f742062652077697468647261776e00600082015250565b60006113c9601f83611037565b91506113d482611393565b602082019050919050565b600060208201905081810360008301526113f8816113bc565b9050919050565b60006060820190506114146000830186611002565b6114216020830185611180565b61142e6040830184611180565b949350505050565b7f4e487b7100000000000000000000000000000000000000000000000000000000600052601160045260246000fd5b60006114708261110a565b915061147b8361110a565b925082820190508082111561149357611492611436565b5b9291505056fea26469706673582212207cd041b15c8ec937b97dcd8690b28ca3cbe3384eb8c835a42da14a5b1272e69264736f6c63430008180033",
  "linkReferences": {},
  "deployedLinkReferences": {}
}