{
  "_format": "hh-sol-artifact-1",
  "contractName": "L1OPToken",
  "sourceName": "contracts/L1OPtoken.sol",
  "abi": [
    {
      "inputs": [
        {
          "internalType": "address",
          "name": "_bridge",
          "type": "address"
        },
        {
          "internalType": "address",
          "name": "_remoteToken",
          "type": "address"
        },
        {
          "internalType": "string",
          "name": "_name",
          "type": "string"
        },
        {
          "internalType": "string",
          "name": "_symbol",
          "type": "string"
        }
      ],
      "stateMutability": "nonpayable",
      "type": "constructor"
    },
    {
      "inputs": [
        {
          "internalType": "address",
          "name": "spender",
          "type": "address"
        },
        {
          "internalType": "uint256",
          "name": "allowance",
          "type": "uint256"
        },
        {
          "internalType": "uint256",
          "name": "needed",
          "type": "uint256"
        }
      ],
      "name": "ERC20InsufficientAllowance",
      "type": "error"
    },
    {
      "inputs": [
        {
          "internalType": "address",
          "name": "sender",
          "type": "address"
        },
        {
          "internalType": "uint256",
          "name": "balance",
          "type": "uint256"
        },
        {
          "internalType": "uint256",
          "name": "needed",
          "type": "uint256"
        }
      ],
      "name": "ERC20InsufficientBalance",
      "type": "error"
    },
    {
      "inputs": [
        {
          "internalType": "address",
          "name": "approver",
          "type": "address"
        }
      ],
      "name": "ERC20InvalidApprover",
      "type": "error"
    },
    {
      "inputs": [
        {
          "internalType": "address",
          "name": "receiver",
          "type": "address"
        }
      ],
      "name": "ERC20InvalidReceiver",
      "type": "error"
    },
    {
      "inputs": [
        {
          "internalType": "address",
          "name": "sender",
          "type": "address"
        }
      ],
      "name": "ERC20InvalidSender",
      "type": "error"
    },
    {
      "inputs": [
        {
          "internalType": "address",
          "name": "spender",
          "type": "address"
        }
      ],
      "name": "ERC20InvalidSpender",
      "type": "error"
    },
    {
      "inputs": [
        {
          "internalType": "address",
          "name": "owner",
          "type": "address"
        }
      ],
      "name": "OwnableInvalidOwner",
      "type": "error"
    },
    {
      "inputs": [
        {
          "internalType": "address",
          "name": "account",
          "type": "address"
        }
      ],
      "name": "OwnableUnauthorizedAccount",
      "type": "error"
    },
    {
      "anonymous": false,
      "inputs": [
        {
          "indexed": true,
          "internalType": "address",
          "name": "owner",
          "type": "address"
        },
        {
          "indexed": true,
          "internalType": "address",
          "name": "spender",
          "type": "address"
        },
        {
          "indexed": false,
          "internalType": "uint256",
          "name": "value",
          "type": "uint256"
        }
      ],
      "name": "Approval",
      "type": "event"
    },
    {
      "anonymous": false,
      "inputs": [
        {
          "indexed": true,
          "internalType": "address",
          "name": "account",
          "type": "address"
        },
        {
          "indexed": false,
          "internalType": "uint256",
          "name": "amount",
          "type": "uint256"
        }
      ],
      "name": "Burn",
      "type": "event"
    },
    {
      "anonymous": false,
      "inputs": [
        {
          "indexed": true,
          "internalType": "address",
          "name": "account",
          "type": "address"
        },
        {
          "indexed": false,
          "internalType": "uint256",
          "name": "amount",
          "type": "uint256"
        }
      ],
      "name": "Mint",
      "type": "event"
    },
    {
      "anonymous": false,
      "inputs": [
        {
          "indexed": true,
          "internalType": "address",
          "name": "previousOwner",
          "type": "address"
        },
        {
          "indexed": true,
          "internalType": "address",
          "name": "newOwner",
          "type": "address"
        }
      ],
      "name": "OwnershipTransferred",
      "type": "event"
    },
    {
      "anonymous": false,
      "inputs": [
        {
          "indexed": true,
          "internalType": "address",
          "name": "from",
          "type": "address"
        },
        {
          "indexed": true,
          "internalType": "address",
          "name": "to",
          "type": "address"
        },
        {
          "indexed": false,
          "internalType": "uint256",
          "name": "value",
          "type": "uint256"
        }
      ],
      "name": "Transfer",
      "type": "event"
    },
    {
      "inputs": [],
      "name": "BRIDGE",
      "outputs": [
        {
          "internalType": "address",
          "name": "",
          "type": "address"
        }
      ],
      "stateMutability": "view",
      "type": "function"
    },
    {
      "inputs": [],
      "name": "REMOTE_TOKEN",
      "outputs": [
        {
          "internalType": "address",
          "name": "",
          "type": "address"
        }
      ],
      "stateMutability": "view",
      "type": "function"
    },
    {
      "inputs": [
        {
          "internalType": "address",
          "name": "owner",
          "type": "address"
        },
        {
          "internalType": "address",
          "name": "spender",
          "type": "address"
        }
      ],
      "name": "allowance",
      "outputs": [
        {
          "internalType": "uint256",
          "name": "",
          "type": "uint256"
        }
      ],
      "stateMutability": "view",
      "type": "function"
    },
    {
      "inputs": [
        {
          "internalType": "address",
          "name": "spender",
          "type": "address"
        },
        {
          "internalType": "uint256",
          "name": "value",
          "type": "uint256"
        }
      ],
      "name": "approve",
      "outputs": [
        {
          "internalType": "bool",
          "name": "",
          "type": "bool"
        }
      ],
      "stateMutability": "nonpayable",
      "type": "function"
    },
    {
      "inputs": [
        {
          "internalType": "address",
          "name": "account",
          "type": "address"
        }
      ],
      "name": "balanceOf",
      "outputs": [
        {
          "internalType": "uint256",
          "name": "",
          "type": "uint256"
        }
      ],
      "stateMutability": "view",
      "type": "function"
    },
    {
      "inputs": [],
      "name": "bridge",
      "outputs": [
        {
          "internalType": "address",
          "name": "",
          "type": "address"
        }
      ],
      "stateMutability": "view",
      "type": "function"
    },
    {
      "inputs": [
        {
          "internalType": "address",
          "name": "",
          "type": "address"
        },
        {
          "internalType": "uint256",
          "name": "",
          "type": "uint256"
        }
      ],
      "name": "burn",
      "outputs": [],
      "stateMutability": "nonpayable",
      "type": "function"
    },
    {
      "inputs": [],
      "name": "decimals",
      "outputs": [
        {
          "internalType": "uint8",
          "name": "",
          "type": "uint8"
        }
      ],
      "stateMutability": "view",
      "type": "function"
    },
    {
      "inputs": [
        {
          "internalType": "address",
          "name": "_to",
          "type": "address"
        },
        {
          "internalType": "uint256",
          "name": "_amount",
          "type": "uint256"
        }
      ],
      "name": "mint",
      "outputs": [],
      "stateMutability": "nonpayable",
      "type": "function"
    },
    {
      "inputs": [],
      "name": "name",
      "outputs": [
        {
          "internalType": "string",
          "name": "",
          "type": "string"
        }
      ],
      "stateMutability": "view",
      "type": "function"
    },
    {
      "inputs": [],
      "name": "owner",
      "outputs": [
        {
          "internalType": "address",
          "name": "",
          "type": "address"
        }
      ],
      "stateMutability": "view",
      "type": "function"
    },
    {
      "inputs": [],
      "name": "remoteToken",
      "outputs": [
        {
          "internalType": "address",
          "name": "",
          "type": "address"
        }
      ],
      "stateMutability": "view",
      "type": "function"
    },
    {
      "inputs": [],
      "name": "renounceOwnership",
      "outputs": [],
      "stateMutability": "nonpayable",
      "type": "function"
    },
    {
      "inputs": [
        {
          "internalType": "address",
          "name": "_remoteToken",
          "type": "address"
        }
      ],
      "name": "setRemoteToken",
      "outputs": [],
      "stateMutability": "nonpayable",
      "type": "function"
    },
    {
      "inputs": [
        {
          "internalType": "bytes4",
          "name": "_interfaceId",
          "type": "bytes4"
        }
      ],
      "name": "supportsInterface",
      "outputs": [
        {
          "internalType": "bool",
          "name": "",
          "type": "bool"
        }
      ],
      "stateMutability": "pure",
      "type": "function"
    },
    {
      "inputs": [],
      "name": "symbol",
      "outputs": [
        {
          "internalType": "string",
          "name": "",
          "type": "string"
        }
      ],
      "stateMutability": "view",
      "type": "function"
    },
    {
      "inputs": [],
      "name": "totalSupply",
      "outputs": [
        {
          "internalType": "uint256",
          "name": "",
          "type": "uint256"
        }
      ],
      "stateMutability": "view",
      "type": "function"
    },
    {
      "inputs": [
        {
          "internalType": "address",
          "name": "to",
          "type": "address"
        },
        {
          "internalType": "uint256",
          "name": "value",
          "type": "uint256"
        }
      ],
      "name": "transfer",
      "outputs": [
        {
          "internalType": "bool",
          "name": "",
          "type": "bool"
        }
      ],
      "stateMutability": "nonpayable",
      "type": "function"
    },
    {
      "inputs": [
        {
          "internalType": "address",
          "name": "from",
          "type": "address"
        },
        {
          "internalType": "address",
          "name": "to",
          "type": "address"
        },
        {
          "internalType": "uint256",
          "name": "value",
          "type": "uint256"
        }
      ],
      "name": "transferFrom",
      "outputs": [
        {
          "internalType": "bool",
          "name": "",
          "type": "bool"
        }
      ],
      "stateMutability": "nonpayable",
      "type": "function"
    },
    {
      "inputs": [
        {
          "internalType": "address",
          "name": "newOwner",
          "type": "address"
        }
      ],
      "name": "transferOwnership",
      "outputs": [],
      "stateMutability": "nonpayable",
      "type": "function"
    }
  ],
  "bytecode": "0x60a06040523480156200001157600080fd5b5060405162000fda38038062000fda8339810160408190526200003491620001f1565b338282600362000045838262000312565b50600462000054828262000312565b5050506001600160a01b0381166200008657604051631e4fbdf760e01b81526000600482015260240160405180910390fd5b6200009181620000ba565b5050600680546001600160a01b0319166001600160a01b039384161790555016608052620003de565b600580546001600160a01b038381166001600160a01b0319831681179093556040519116919082907f8be0079c531659141344cd1fd0a4f28419497f9722a3daafe3b4186f6b6457e090600090a35050565b80516001600160a01b03811681146200012457600080fd5b919050565b634e487b7160e01b600052604160045260246000fd5b600082601f8301126200015157600080fd5b81516001600160401b03808211156200016e576200016e62000129565b604051601f8301601f19908116603f0116810190828211818310171562000199576200019962000129565b8160405283815260209250866020858801011115620001b757600080fd5b600091505b83821015620001db5785820183015181830184015290820190620001bc565b6000602085830101528094505050505092915050565b600080600080608085870312156200020857600080fd5b62000213856200010c565b935062000223602086016200010c565b60408601519093506001600160401b03808211156200024157600080fd5b6200024f888389016200013f565b935060608701519150808211156200026657600080fd5b5062000275878288016200013f565b91505092959194509250565b600181811c908216806200029657607f821691505b602082108103620002b757634e487b7160e01b600052602260045260246000fd5b50919050565b601f8211156200030d576000816000526020600020601f850160051c81016020861015620002e85750805b601f850160051c820191505b818110156200030957828155600101620002f4565b5050505b505050565b81516001600160401b038111156200032e576200032e62000129565b62000346816200033f845462000281565b84620002bd565b602080601f8311600181146200037e5760008415620003655750858301515b600019600386901b1c1916600185901b17855562000309565b600085815260208120601f198616915b82811015620003af578886015182559484019460019091019084016200038e565b5085821015620003ce5787850151600019600388901b60f8161c191681555b5050505050600190811b01905550565b608051610bcb6200040f600039600081816102c4015281816102ed0152818161043b015261052a0152610bcb6000f3fe608060405234801561001057600080fd5b506004361061012c5760003560e01c8063715018a6116100ad578063d6c0b2c411610071578063d6c0b2c414610278578063dd62ed3e14610289578063e78cea92146102c2578063ee9a31a2146102e8578063f2fde38b1461030f57600080fd5b8063715018a6146102315780638da5cb5b1461023957806395d89b411461024a5780639dc29fac14610252578063a9059cbb1461026557600080fd5b806323b872dd116100f457806323b872dd146101be578063313ce567146101d157806340c10f19146101e057806345ea131a146101f557806370a082311461020857600080fd5b806301ffc9a714610131578063033964be1461015957806306fdde0314610184578063095ea7b31461019957806318160ddd146101ac575b600080fd5b61014461013f3660046109a2565b610322565b60405190151581526020015b60405180910390f35b60065461016c906001600160a01b031681565b6040516001600160a01b039091168152602001610150565b61018c610360565b60405161015091906109d3565b6101446101a7366004610a3e565b6103f2565b6002545b604051908152602001610150565b6101446101cc366004610a68565b61040c565b60405160128152602001610150565b6101f36101ee366004610a3e565b610430565b005b6101f3610203366004610aa4565b6104d2565b6101b0610216366004610aa4565b6001600160a01b031660009081526020819052604090205490565b6101f36104fc565b6005546001600160a01b031661016c565b61018c610510565b6101f3610260366004610a3e565b61051f565b610144610273366004610a3e565b6105af565b6006546001600160a01b031661016c565b6101b0610297366004610abf565b6001600160a01b03918216600090815260016020908152604080832093909416825291909152205490565b7f000000000000000000000000000000000000000000000000000000000000000061016c565b61016c7f000000000000000000000000000000000000000000000000000000000000000081565b6101f361031d366004610aa4565b6105bd565b60006301ffc9a760e01b63ec4fc8e360e01b6001600160e01b0319841682148061035857506001600160e01b0319848116908216145b949350505050565b60606003805461036f90610af2565b80601f016020809104026020016040519081016040528092919081815260200182805461039b90610af2565b80156103e85780601f106103bd576101008083540402835291602001916103e8565b820191906000526020600020905b8154815290600101906020018083116103cb57829003601f168201915b5050505050905090565b6000336104008185856105fb565b60019150505b92915050565b60003361041a85828561060d565b61042585858561068b565b506001949350505050565b336001600160a01b037f000000000000000000000000000000000000000000000000000000000000000016146104815760405162461bcd60e51b815260040161047890610b2c565b60405180910390fd5b61048b82826106ea565b816001600160a01b03167f0f6798a560793a54c3bcfe86a93cde1e73087d944c0ea20544137d4121396885826040516104c691815260200190565b60405180910390a25050565b6104da610724565b600680546001600160a01b0319166001600160a01b0392909216919091179055565b610504610724565b61050e6000610751565b565b60606004805461036f90610af2565b336001600160a01b037f000000000000000000000000000000000000000000000000000000000000000016146105675760405162461bcd60e51b815260040161047890610b2c565b60405162461bcd60e51b815260206004820152601d60248201527f4c314f50546f6b656e2063616e6e6f742062652077697468647261776e0000006044820152606401610478565b60003361040081858561068b565b6105c5610724565b6001600160a01b0381166105ef57604051631e4fbdf760e01b815260006004820152602401610478565b6105f881610751565b50565b61060883838360016107a3565b505050565b6001600160a01b038381166000908152600160209081526040808320938616835292905220546000198114610685578181101561067657604051637dc7a0d960e11b81526001600160a01b03841660048201526024810182905260448101839052606401610478565b610685848484840360006107a3565b50505050565b6001600160a01b0383166106b557604051634b637e8f60e11b815260006004820152602401610478565b6001600160a01b0382166106df5760405163ec442f0560e01b815260006004820152602401610478565b610608838383610878565b6001600160a01b0382166107145760405163ec442f0560e01b815260006004820152602401610478565b61072060008383610878565b5050565b6005546001600160a01b0316331461050e5760405163118cdaa760e01b8152336004820152602401610478565b600580546001600160a01b038381166001600160a01b0319831681179093556040519116919082907f8be0079c531659141344cd1fd0a4f28419497f9722a3daafe3b4186f6b6457e090600090a35050565b6001600160a01b0384166107cd5760405163e602df0560e01b815260006004820152602401610478565b6001600160a01b0383166107f757604051634a1406b160e11b815260006004820152602401610478565b6001600160a01b038085166000908152600160209081526040808320938716835292905220829055801561068557826001600160a01b0316846001600160a01b03167f8c5be1e5ebec7d5bd14f71427d1e84f3dd0314c0f7b2291e5b200ac8c7c3b9258460405161086a91815260200190565b60405180910390a350505050565b6001600160a01b0383166108a35780600260008282546108989190610b74565b909155506109159050565b6001600160a01b038316600090815260208190526040902054818110156108f65760405163391434e360e21b81526001600160a01b03851660048201526024810182905260448101839052606401610478565b6001600160a01b03841660009081526020819052604090209082900390555b6001600160a01b03821661093157600280548290039055610950565b6001600160a01b03821660009081526020819052604090208054820190555b816001600160a01b0316836001600160a01b03167fddf252ad1be2c89b69c2b068fc378daa952ba7f163c4a11628f55a4df523b3ef8360405161099591815260200190565b60405180910390a3505050565b6000602082840312156109b457600080fd5b81356001600160e01b0319811681146109cc57600080fd5b9392505050565b60006020808352835180602085015260005b81811015610a01578581018301518582016040015282016109e5565b506000604082860101526040601f19601f8301168501019250505092915050565b80356001600160a01b0381168114610a3957600080fd5b919050565b60008060408385031215610a5157600080fd5b610a5a83610a22565b946020939093013593505050565b600080600060608486031215610a7d57600080fd5b610a8684610a22565b9250610a9460208501610a22565b9150604084013590509250925092565b600060208284031215610ab657600080fd5b6109cc82610a22565b60008060408385031215610ad257600080fd5b610adb83610a22565b9150610ae960208401610a22565b90509250929050565b600181811c90821680610b0657607f821691505b602082108103610b2657634e487b7160e01b600052602260045260246000fd5b50919050565b60208082526028908201527f4c314f50546f6b656e3a206f6e6c79206272696467652063616e206d696e742060408201526730b73210313ab93760c11b606082015260800190565b8082018082111561040657634e487b7160e01b600052601160045260246000fdfea2646970667358221220c1f308be9e435bfb3fd6caa4d034bbe126f8b34d2f8df24d884adb19fcf50f0164736f6c63430008180033",
  "linkReferences": {},
  "deployedLinkReferences": {}
}